{
  "contractName": "Loan",
  "abi": [
    {
      "anonymous": false,
      "inputs": [
        {
          "indexed": false,
          "internalType": "uint256",
          "name": "",
          "type": "uint256"
        },
        {
          "indexed": false,
          "internalType": "address",
          "name": "",
          "type": "address"
        },
        {
          "indexed": false,
          "internalType": "uint256",
          "name": "",
          "type": "uint256"
        }
      ],
      "name": "Request",
      "type": "event"
    },
    {
      "constant": true,
      "inputs": [
        {
          "internalType": "uint256",
          "name": "",
          "type": "uint256"
        }
      ],
      "name": "debtInfo",
      "outputs": [
        {
          "internalType": "uint256",
          "name": "id",
          "type": "uint256"
        },
        {
          "internalType": "address payable",
          "name": "borrower",
          "type": "address"
        },
        {
          "internalType": "address payable",
          "name": "lender",
          "type": "address"
        },
        {
          "internalType": "uint256",
          "name": "amount",
          "type": "uint256"
        },
        {
          "internalType": "uint256",
          "name": "interest",
          "type": "uint256"
        },
        {
          "internalType": "uint8",
          "name": "loanState",
          "type": "uint8"
        }
      ],
      "payable": false,
      "stateMutability": "view",
      "type": "function"
    },
    {
      "constant": true,
      "inputs": [],
      "name": "state",
      "outputs": [
        {
          "internalType": "enum Loan.State",
          "name": "",
          "type": "uint8"
        }
      ],
      "payable": false,
      "stateMutability": "view",
      "type": "function"
    },
    {
      "constant": false,
      "inputs": [
        {
          "internalType": "address payable",
          "name": "_borrower",
          "type": "address"
        },
        {
          "internalType": "uint256",
          "name": "_amount",
          "type": "uint256"
        }
      ],
      "name": "addDebt",
      "outputs": [],
      "payable": false,
      "stateMutability": "nonpayable",
      "type": "function"
    },
    {
      "constant": false,
      "inputs": [
        {
          "internalType": "address payable",
          "name": "lender",
          "type": "address"
        },
        {
          "internalType": "uint256",
          "name": "_debtId",
          "type": "uint256"
        }
      ],
      "name": "fund",
      "outputs": [],
      "payable": true,
      "stateMutability": "payable",
      "type": "function"
    },
    {
      "constant": false,
      "inputs": [
        {
          "internalType": "uint256",
          "name": "_debtId",
          "type": "uint256"
        }
      ],
      "name": "reimburse",
      "outputs": [],
      "payable": true,
      "stateMutability": "payable",
      "type": "function"
    },
    {
      "constant": true,
      "inputs": [],
      "name": "getIds",
      "outputs": [
        {
          "internalType": "uint256[]",
          "name": "",
          "type": "uint256[]"
        }
      ],
      "payable": false,
      "stateMutability": "view",
      "type": "function"
    },
    {
      "constant": true,
      "inputs": [
        {
          "internalType": "uint256",
          "name": "_debtId",
          "type": "uint256"
        }
      ],
      "name": "debtInfoById",
      "outputs": [
        {
          "internalType": "uint256",
          "name": "",
          "type": "uint256"
        },
        {
          "internalType": "address",
          "name": "",
          "type": "address"
        },
        {
          "internalType": "address",
          "name": "",
          "type": "address"
        },
        {
          "internalType": "uint256",
          "name": "",
          "type": "uint256"
        },
        {
          "internalType": "uint256",
          "name": "",
          "type": "uint256"
        },
        {
          "internalType": "uint256",
          "name": "",
          "type": "uint256"
        }
      ],
      "payable": false,
      "stateMutability": "view",
      "type": "function"
    }
  ],
  "bytecode": "0x608060405260008060006101000a81548160ff0219169083600281111561002257fe5b021790555034801561003357600080fd5b50611115806100436000396000f3fe6080604052600436106100705760003560e01c80637b1837de1161004e5780637b1837de1461016a578063c19d93fb146101b8578063da5da2fb146101f1578063e57e339f146102bb57610070565b80632b1056631461007557806334c389ef146100e15780634a44c2e41461013c575b600080fd5b34801561008157600080fd5b5061008a61038b565b6040518080602001828103825283818151815260200191508051906020019060200280838360005b838110156100cd5780820151818401526020810190506100b2565b505050509050019250505060405180910390f35b3480156100ed57600080fd5b5061013a6004803603604081101561010457600080fd5b81019080803573ffffffffffffffffffffffffffffffffffffffff169060200190929190803590602001909291905050506103e3565b005b6101686004803603602081101561015257600080fd5b81019080803590602001909291905050506105fa565b005b6101b66004803603604081101561018057600080fd5b81019080803573ffffffffffffffffffffffffffffffffffffffff1690602001909291908035906020019092919050505061085f565b005b3480156101c457600080fd5b506101cd610b96565b604051808260028111156101dd57fe5b60ff16815260200191505060405180910390f35b3480156101fd57600080fd5b5061022a6004803603602081101561021457600080fd5b8101908080359060200190929190505050610ba8565b604051808781526020018673ffffffffffffffffffffffffffffffffffffffff1673ffffffffffffffffffffffffffffffffffffffff1681526020018573ffffffffffffffffffffffffffffffffffffffff1673ffffffffffffffffffffffffffffffffffffffff168152602001848152602001838152602001828152602001965050505050505060405180910390f35b3480156102c757600080fd5b506102f4600480360360208110156102de57600080fd5b8101908080359060200190929190505050610ca9565b604051808781526020018673ffffffffffffffffffffffffffffffffffffffff1673ffffffffffffffffffffffffffffffffffffffff1681526020018573ffffffffffffffffffffffffffffffffffffffff1673ffffffffffffffffffffffffffffffffffffffff1681526020018481526020018381526020018260ff1660ff168152602001965050505050505060405180910390f35b606060038054806020026020016040519081016040528092919081815260200182805480156103d957602002820191906000526020600020905b8154815260200190600101908083116103c5575b5050505050905090565b6040518060c0016040528060025481526020018373ffffffffffffffffffffffffffffffffffffffff168152602001600073ffffffffffffffffffffffffffffffffffffffff168152602001828152602001600281526020016000809054906101000a900460ff16600281111561045657fe5b60ff168152506001600060025481526020019081526020016000206000820151816000015560208201518160010160006101000a81548173ffffffffffffffffffffffffffffffffffffffff021916908373ffffffffffffffffffffffffffffffffffffffff16021790555060408201518160020160006101000a81548173ffffffffffffffffffffffffffffffffffffffff021916908373ffffffffffffffffffffffffffffffffffffffff160217905550606082015181600301556080820151816004015560a08201518160050160006101000a81548160ff021916908360ff160217905550905050600360025490806001815401808255809150509060018203906000526020600020016000909192909190915055507f950cc922e79d4067e221a468683f7d798d1be2da8bec745fe110c373e356d47c6002548383604051808481526020018373ffffffffffffffffffffffffffffffffffffffff1673ffffffffffffffffffffffffffffffffffffffff168152602001828152602001935050505060405180910390a16002600081548092919060010191905055505050565b6001600082815260200190815260200160002060010160009054906101000a900473ffffffffffffffffffffffffffffffffffffffff1673ffffffffffffffffffffffffffffffffffffffff163373ffffffffffffffffffffffffffffffffffffffff16146106d1576040517f08c379a000000000000000000000000000000000000000000000000000000000815260040180806020018281038252601b8152602001807f6f6e6c7920626f72726f7765722063616e207265696d6275727365000000000081525060200191505060405180910390fd5b60016000828152602001908152602001600020600401546001600083815260200190815260200160002060030154013414610757576040517f08c379a00000000000000000000000000000000000000000000000000000000081526004018080602001828103825260348152602001806110896034913960400191505060405180910390fd5b600061079860016000848152602001908152602001600020600401546001600085815260200190815260200160002060030154610d3290919063ffffffff16565b90506107a46002610dba565b6002808111156107b057fe5b6001600084815260200190815260200160002060050160006101000a81548160ff021916908360ff1602179055506001600083815260200190815260200160002060020160009054906101000a900473ffffffffffffffffffffffffffffffffffffffff1673ffffffffffffffffffffffffffffffffffffffff166108fc829081150290604051600060405180830381858888f1935050505015801561085a573d6000803e3d6000fd5b505050565b600073ffffffffffffffffffffffffffffffffffffffff168273ffffffffffffffffffffffffffffffffffffffff161415610902576040517f08c379a00000000000000000000000000000000000000000000000000000000081526004018080602001828103825260148152602001807f6f6e6c79206c656e6465722063616e206c656e6400000000000000000000000081525060200191505060405180910390fd5b6001600082815260200190815260200160002060010160009054906101000a900473ffffffffffffffffffffffffffffffffffffffff1673ffffffffffffffffffffffffffffffffffffffff168273ffffffffffffffffffffffffffffffffffffffff1614156109da576040517f08c379a00000000000000000000000000000000000000000000000000000000081526004018080602001828103825260168152602001807f4e6f7420417574686f7269736564204c656e6465722e0000000000000000000081525060200191505060405180910390fd5b60016000828152602001908152602001600020600301543414610a65576040517f08c379a00000000000000000000000000000000000000000000000000000000081526004018080602001828103825260108152602001807f496e636f727265637420416d6f756e740000000000000000000000000000000081525060200191505060405180910390fd5b610a6f6001610dba565b816001600083815260200190815260200160002060020160006101000a81548173ffffffffffffffffffffffffffffffffffffffff021916908373ffffffffffffffffffffffffffffffffffffffff16021790555060016002811115610ad157fe5b6001600083815260200190815260200160002060050160006101000a81548160ff021916908360ff1602179055506001600082815260200190815260200160002060010160009054906101000a900473ffffffffffffffffffffffffffffffffffffffff1673ffffffffffffffffffffffffffffffffffffffff166108fc60016000848152602001908152602001600020600301549081150290604051600060405180830381858888f19350505050158015610b91573d6000803e3d6000fd5b505050565b6000809054906101000a900460ff1681565b60008060008060008060016000888152602001908152602001600020600001546001600089815260200190815260200160002060010160009054906101000a900473ffffffffffffffffffffffffffffffffffffffff16600160008a815260200190815260200160002060020160009054906101000a900473ffffffffffffffffffffffffffffffffffffffff16600160008b815260200190815260200160002060030154600160008c815260200190815260200160002060040154600160008d815260200190815260200160002060050160009054906101000a900460ff168494508393508060ff16905095509550955095509550955091939550919395565b60016020528060005260406000206000915090508060000154908060010160009054906101000a900473ffffffffffffffffffffffffffffffffffffffff16908060020160009054906101000a900473ffffffffffffffffffffffffffffffffffffffff16908060030154908060040154908060050160009054906101000a900460ff16905086565b600080828401905083811015610db0576040517f08c379a000000000000000000000000000000000000000000000000000000000815260040180806020018281038252601b8152602001807f536166654d6174683a206164646974696f6e206f766572666c6f77000000000081525060200191505060405180910390fd5b8091505092915050565b60006002811115610dc757fe5b816002811115610dd357fe5b1415610e47576040517f08c379a00000000000000000000000000000000000000000000000000000000081526004018080602001828103825260198152602001807f63616e6e6f7420676f206261636b20746f2070656e64696e670000000000000081525060200191505060405180910390fd5b6000809054906101000a900460ff166002811115610e6157fe5b816002811115610e6d57fe5b1415610ee1576040517f08c379a000000000000000000000000000000000000000000000000000000000815260040180806020018281038252601f8152602001807f63616e6e6f74207472616e736974696f6e20746f2073616d652073746174650081525060200191505060405180910390fd5b60016002811115610eee57fe5b816002811115610efa57fe5b1415610fa15760006002811115610f0d57fe5b6000809054906101000a900460ff166002811115610f2757fe5b14610f7d576040517f08c379a00000000000000000000000000000000000000000000000000000000081526004018080602001828103825260258152602001806110646025913960400191505060405180910390fd5b60016000806101000a81548160ff02191690836002811115610f9b57fe5b02179055505b600280811115610fad57fe5b816002811115610fb957fe5b14156110605760016002811115610fcc57fe5b6000809054906101000a900460ff166002811115610fe657fe5b1461103c576040517f08c379a00000000000000000000000000000000000000000000000000000000081526004018080602001828103825260248152602001806110bd6024913960400191505060405180910390fd5b60026000806101000a81548160ff0219169083600281111561105a57fe5b02179055505b5056fe63616e6e6f74206f6e6c7920676f20746f206163746976652066726f6d2070656e64696e67626f72726f776572206e65656420746f207265696d62757273652065786163746c7920616d6f756e74202b20696e74657265737463616e6e6f74206f6e6c7920676f20746f20636c6f7365642066726f6d20616374697665a265627a7a72315820f89f55cb228feef2957435ebf2c0fd0b4ff1a981b012a3a25d158cf7e201260364736f6c63430005100032",
  "source": "//SPDX-License-Identifier: MIT\npragma solidity >=0.5.0 <0.7.0;\nimport \"./SafeMath.sol\";\n\ncontract Loan {\n    using SafeMath for uint256;\n    enum State {PENDING, ACTIVE, CLOSED}\n    State public state = State.PENDING;\n    // uint public amount;\n    // uint public interest;\n    // uint public end;\n    // uint public duration;\n    // address payable public borrower;\n    // address payable public lender;\n    struct Debt {\n        uint256 id;\n        address payable borrower;\n        address payable lender;\n        uint256 amount;\n        uint256 interest;\n        uint8 loanState;\n    }\n    event Request(uint256, address, uint256);\n    mapping(uint256 => Debt) public debtInfo;\n    // mapping(uint256 => Track[]) public trackInfo;\n    uint256 debtId;\n    uint256[] trackId;\n\n    function addDebt(address payable _borrower, uint256 _amount) external {\n        // uint256 _interest =\n        debtInfo[debtId] = Debt(\n            debtId,\n            _borrower,\n            address(0),\n            _amount,\n            2,\n            uint8(state)\n        );\n        // debtHistory[_borrower].push(debtId);\n        //Track storage track = trackInfo[debtId];\n        // trackInfo[debtId].id = _borrower;\n        trackId.push(debtId);\n        emit Request(debtId, _borrower, _amount);\n        debtId++;\n    }\n\n    function fund(address payable lender, uint256 _debtId) external payable {\n        require(lender != address(0), \"only lender can lend\");\n        require(lender != debtInfo[_debtId].borrower, \"Not Authorised Lender.\");\n        require(msg.value == debtInfo[_debtId].amount, \"Incorrect Amount\");\n        _transitionTo(State.ACTIVE);\n        debtInfo[_debtId].lender = lender;\n        debtInfo[_debtId].loanState = uint8(State.ACTIVE);\n        debtInfo[_debtId].borrower.transfer(debtInfo[_debtId].amount);\n    }\n\n    function reimburse(uint256 _debtId) external payable {\n        require(\n            msg.sender == debtInfo[_debtId].borrower,\n            \"only borrower can reimburse\"\n        );\n        require(\n            msg.value == debtInfo[_debtId].amount + debtInfo[_debtId].interest,\n            \"borrower need to reimburse exactly amount + interest\"\n        );\n        uint256 finalAmount = debtInfo[_debtId].amount.add(\n            debtInfo[_debtId].interest\n        );\n        _transitionTo(State.CLOSED);\n        debtInfo[_debtId].loanState = uint8(State.CLOSED);\n        debtInfo[_debtId].lender.transfer(finalAmount);\n    }\n\n    function _transitionTo(State to) internal {\n        require(to != State.PENDING, \"cannot go back to pending\");\n        require(to != state, \"cannot transition to same state\");\n        if (to == State.ACTIVE) {\n            require(\n                state == State.PENDING,\n                \"cannot only go to active from pending\"\n            );\n            state = State.ACTIVE;\n        }\n        if (to == State.CLOSED) {\n            require(\n                state == State.ACTIVE,\n                \"cannot only go to closed from active\"\n            );\n\n            state = State.CLOSED;\n        }\n    }\n\n    function getIds() public view returns (uint256[] memory) {\n        return trackId;\n    }\n\n    function debtInfoById(uint256 _debtId)\n        public\n        view\n        returns (\n            uint256,\n            address,\n            address,\n            uint256,\n            uint256,\n            uint256\n        )\n    {\n        return (\n            debtInfo[_debtId].id,\n            debtInfo[_debtId].borrower,\n            debtInfo[_debtId].lender,\n            debtInfo[_debtId].amount,\n            debtInfo[_debtId].interest,\n            debtInfo[_debtId].loanState\n        );\n    }\n}\n",
  "sourcePath": "/Users/bhasineeraj/bhasineeraj/smartContracts/GBCDesignPatternMicroLoans/contracts/Loan.sol",
  "compiler": {
    "name": "solc",
    "version": "0.5.16+commit.9c3226ce.Emscripten.clang"
  },
  "schemaVersion": "3.2.0",
  "updatedAt": "2020-06-20T19:43:51.557Z",
  "networkType": "ethereum",
  "devdoc": {
    "methods": {}
  },
  "userdoc": {
    "methods": {}
  }
}