{
  "contractName": "LoanDB",
  "abi": [
    {
      "inputs": [],
      "payable": false,
      "stateMutability": "nonpayable",
      "type": "constructor"
    },
    {
      "constant": true,
      "inputs": [],
      "name": "state",
      "outputs": [
        {
          "internalType": "enum LoanDB.LoanState",
          "name": "",
          "type": "uint8"
        }
      ],
      "payable": false,
      "stateMutability": "view",
      "type": "function"
    },
    {
      "constant": false,
      "inputs": [
        {
          "internalType": "address",
          "name": "_borrower",
          "type": "address"
        },
        {
          "internalType": "uint256",
          "name": "_amount",
          "type": "uint256"
        },
        {
          "internalType": "uint256",
          "name": "_interest",
          "type": "uint256"
        }
      ],
      "name": "addDebt",
      "outputs": [],
      "payable": false,
      "stateMutability": "nonpayable",
      "type": "function"
    },
    {
      "constant": false,
      "inputs": [
        {
          "internalType": "uint256",
          "name": "_debtId",
          "type": "uint256"
        },
        {
          "internalType": "address",
          "name": "_lender",
          "type": "address"
        }
      ],
      "name": "updateLender",
      "outputs": [],
      "payable": false,
      "stateMutability": "nonpayable",
      "type": "function"
    },
    {
      "constant": false,
      "inputs": [
        {
          "internalType": "uint256",
          "name": "_debtId",
          "type": "uint256"
        }
      ],
      "name": "paidDebt",
      "outputs": [],
      "payable": false,
      "stateMutability": "nonpayable",
      "type": "function"
    },
    {
      "constant": false,
      "inputs": [
        {
          "internalType": "address",
          "name": "_sender",
          "type": "address"
        },
        {
          "internalType": "bool",
          "name": "_state",
          "type": "bool"
        }
      ],
      "name": "setHaveDebt",
      "outputs": [],
      "payable": false,
      "stateMutability": "nonpayable",
      "type": "function"
    },
    {
      "constant": true,
      "inputs": [
        {
          "internalType": "address",
          "name": "_address",
          "type": "address"
        }
      ],
      "name": "checkHaveDebt",
      "outputs": [
        {
          "internalType": "bool",
          "name": "",
          "type": "bool"
        }
      ],
      "payable": false,
      "stateMutability": "view",
      "type": "function"
    },
    {
      "constant": true,
      "inputs": [
        {
          "internalType": "uint256",
          "name": "_debtId",
          "type": "uint256"
        }
      ],
      "name": "getLenderofDebt",
      "outputs": [
        {
          "internalType": "address",
          "name": "",
          "type": "address"
        }
      ],
      "payable": false,
      "stateMutability": "view",
      "type": "function"
    },
    {
      "constant": true,
      "inputs": [
        {
          "internalType": "uint256",
          "name": "_debtId",
          "type": "uint256"
        }
      ],
      "name": "getBorrowerofDebt",
      "outputs": [
        {
          "internalType": "address",
          "name": "",
          "type": "address"
        }
      ],
      "payable": false,
      "stateMutability": "view",
      "type": "function"
    },
    {
      "constant": true,
      "inputs": [
        {
          "internalType": "uint256",
          "name": "_debtId",
          "type": "uint256"
        }
      ],
      "name": "getAmountofDebt",
      "outputs": [
        {
          "internalType": "uint256",
          "name": "",
          "type": "uint256"
        }
      ],
      "payable": false,
      "stateMutability": "view",
      "type": "function"
    },
    {
      "constant": true,
      "inputs": [
        {
          "internalType": "uint256",
          "name": "_debtId",
          "type": "uint256"
        }
      ],
      "name": "getInterestofDebt",
      "outputs": [
        {
          "internalType": "uint256",
          "name": "",
          "type": "uint256"
        }
      ],
      "payable": false,
      "stateMutability": "view",
      "type": "function"
    },
    {
      "constant": true,
      "inputs": [
        {
          "internalType": "uint256",
          "name": "_debtId",
          "type": "uint256"
        }
      ],
      "name": "getStateofDebt",
      "outputs": [
        {
          "internalType": "uint8",
          "name": "",
          "type": "uint8"
        }
      ],
      "payable": false,
      "stateMutability": "view",
      "type": "function"
    },
    {
      "constant": true,
      "inputs": [
        {
          "internalType": "address",
          "name": "_address",
          "type": "address"
        }
      ],
      "name": "getDebtHistory",
      "outputs": [
        {
          "internalType": "uint256[]",
          "name": "",
          "type": "uint256[]"
        }
      ],
      "payable": false,
      "stateMutability": "view",
      "type": "function"
    },
    {
      "constant": true,
      "inputs": [
        {
          "internalType": "address",
          "name": "_address",
          "type": "address"
        }
      ],
      "name": "getLendHistory",
      "outputs": [
        {
          "internalType": "uint256[]",
          "name": "",
          "type": "uint256[]"
        }
      ],
      "payable": false,
      "stateMutability": "view",
      "type": "function"
    }
  ],
  "bytecode": "0x60806040526000600460006101000a81548160ff0219169083600281111561002357fe5b021790555034801561003457600080fd5b50610b83806100446000396000f3fe608060405234801561001057600080fd5b50600436106100cf5760003560e01c8063776052e01161008c578063c19d93fb11610066578063c19d93fb14610444578063ce35b0e414610470578063e2947b29146104de578063f710e5b11461050c576100cf565b8063776052e01461036a5780638f21f51e146103ba578063bfc3f980146103fc576100cf565b806343505730146100d45780634a453b8a1461016d5780634aa43393146101db578063694b9cf3146102375780636c79fc801461027957806373400caf146102d1575b600080fd5b610116600480360360208110156100ea57600080fd5b81019080803573ffffffffffffffffffffffffffffffffffffffff16906020019092919050505061055a565b6040518080602001828103825283818151815260200191508051906020019060200280838360005b8381101561015957808201518184015260208101905061013e565b505050509050019250505060405180910390f35b6101996004803603602081101561018357600080fd5b81019080803590602001909291905050506105f1565b604051808273ffffffffffffffffffffffffffffffffffffffff1673ffffffffffffffffffffffffffffffffffffffff16815260200191505060405180910390f35b61021d600480360360208110156101f157600080fd5b81019080803573ffffffffffffffffffffffffffffffffffffffff169060200190929190505050610630565b604051808215151515815260200191505060405180910390f35b6102636004803603602081101561024d57600080fd5b8101908080359060200190929190505050610686565b6040518082815260200191505060405180910390f35b6102cf6004803603606081101561028f57600080fd5b81019080803573ffffffffffffffffffffffffffffffffffffffff16906020019092919080359060200190929190803590602001909291905050506106a5565b005b610313600480360360208110156102e757600080fd5b81019080803573ffffffffffffffffffffffffffffffffffffffff169060200190929190505050610884565b6040518080602001828103825283818151815260200191508051906020019060200280838360005b8381101561035657808201518184015260208101905061033b565b505050509050019250505060405180910390f35b6103b86004803603604081101561038057600080fd5b81019080803573ffffffffffffffffffffffffffffffffffffffff16906020019092919080351515906020019092919050505061091b565b005b6103e6600480360360208110156103d057600080fd5b8101908080359060200190929190505050610976565b6040518082815260200191505060405180910390f35b6104286004803603602081101561041257600080fd5b8101908080359060200190929190505050610995565b604051808260ff1660ff16815260200191505060405180910390f35b61044c6109c1565b6040518082600281111561045c57fe5b60ff16815260200191505060405180910390f35b61049c6004803603602081101561048657600080fd5b81019080803590602001909291905050506109d4565b604051808273ffffffffffffffffffffffffffffffffffffffff1673ffffffffffffffffffffffffffffffffffffffff16815260200191505060405180910390f35b61050a600480360360208110156104f457600080fd5b8101908080359060200190929190505050610a13565b005b6105586004803603604081101561052257600080fd5b8101908080359060200190929190803573ffffffffffffffffffffffffffffffffffffffff169060200190929190505050610a4f565b005b6060600160008373ffffffffffffffffffffffffffffffffffffffff1673ffffffffffffffffffffffffffffffffffffffff1681526020019081526020016000208054806020026020016040519081016040528092919081815260200182805480156105e557602002820191906000526020600020905b8154815260200190600101908083116105d1575b50505050509050919050565b600080600083815260200190815260200160002060010160009054906101000a900473ffffffffffffffffffffffffffffffffffffffff169050919050565b6000600360008373ffffffffffffffffffffffffffffffffffffffff1673ffffffffffffffffffffffffffffffffffffffff16815260200190815260200160002060009054906101000a900460ff169050919050565b6000806000838152602001908152602001600020600401549050919050565b6040518060c0016040528060055481526020018473ffffffffffffffffffffffffffffffffffffffff168152602001600073ffffffffffffffffffffffffffffffffffffffff168152602001838152602001828152602001600460009054906101000a900460ff16600281111561071857fe5b60ff1681525060008060055481526020019081526020016000206000820151816000015560208201518160010160006101000a81548173ffffffffffffffffffffffffffffffffffffffff021916908373ffffffffffffffffffffffffffffffffffffffff16021790555060408201518160020160006101000a81548173ffffffffffffffffffffffffffffffffffffffff021916908373ffffffffffffffffffffffffffffffffffffffff160217905550606082015181600301556080820151816004015560a08201518160050160006101000a81548160ff021916908360ff160217905550905050600160008473ffffffffffffffffffffffffffffffffffffffff1673ffffffffffffffffffffffffffffffffffffffff1681526020019081526020016000206005549080600181540180825580915050906001820390600052602060002001600090919290919091505550600560008154809291906001019190505550505050565b6060600260008373ffffffffffffffffffffffffffffffffffffffff1673ffffffffffffffffffffffffffffffffffffffff16815260200190815260200160002080548060200260200160405190810160405280929190818152602001828054801561090f57602002820191906000526020600020905b8154815260200190600101908083116108fb575b50505050509050919050565b80600360008473ffffffffffffffffffffffffffffffffffffffff1673ffffffffffffffffffffffffffffffffffffffff16815260200190815260200160002060006101000a81548160ff0219169083151502179055505050565b6000806000838152602001908152602001600020600301549050919050565b600080600083815260200190815260200160002060050160009054906101000a900460ff169050919050565b600460009054906101000a900460ff1681565b600080600083815260200190815260200160002060020160009054906101000a900473ffffffffffffffffffffffffffffffffffffffff169050919050565b600280811115610a1f57fe5b60008083815260200190815260200160002060050160006101000a81548160ff021916908360ff16021790555050565b80600080600554815260200190815260200160002060020160006101000a81548173ffffffffffffffffffffffffffffffffffffffff021916908373ffffffffffffffffffffffffffffffffffffffff16021790555060016002811115610ab257fe5b600080600554815260200190815260200160002060050160006101000a81548160ff021916908360ff160217905550600260008273ffffffffffffffffffffffffffffffffffffffff1673ffffffffffffffffffffffffffffffffffffffff168152602001908152602001600020829080600181540180825580915050906001820390600052602060002001600090919290919091505550505056fea265627a7a7231582025ee56d8c8baf861be56db5777d49a8d9cbf244779fe69ff557c8e54530b52c264736f6c63430005100032",
  "source": "//SPDX-License-Identifier: MIT\npragma solidity >=0.5.0 <0.7.0;\n\n/**\n  @title loanDB\n  @dev stores all the information\n  @author Bhasin Neeraj\n */\ncontract LoanDB {\n    //creating a loan state\n    enum LoanState {PENDING, ACTIVE, CLOSED}\n    //STRUCTURE\n    //storing the debt information\n    struct Debt {\n        uint256 id;\n        address borrower;\n        address lender;\n        uint256 amount;\n        uint256 interest;\n        uint8 loanState;\n    }\n    //MODALS\n    /**\n    @dev\n      1. mapping the debtId to add the debt information\n      2. storing debt info with borrower addr\n      3. storing debt info with borrower lender\n      4. check given address is having debt or no\n     */\n    mapping(uint256 => Debt) private debtInfo;\n    mapping(address => uint256[]) private debtHistory;\n    mapping(address => uint256[]) private lendHistory;\n    mapping(address => bool) private haveDebt;\n\n    LoanState public state = LoanState.PENDING;\n    uint256 debtId;\n\n    constructor() public {}\n\n    /**\n      @dev to add the debt info.\n    \n      @param _borrower address of borrower\n      @param _amount amount he want\n      @param _interest interest rate\n     */\n    function addDebt(\n        address _borrower,\n        uint256 _amount,\n        uint256 _interest\n    ) external {\n        debtInfo[debtId] = Debt(\n            debtId,\n            _borrower,\n            address(0),\n            _amount,\n            _interest,\n            uint8(state)\n        );\n        debtHistory[_borrower].push(debtId);\n        debtId++;\n    }\n\n    /**\n      @dev called when someone lends the moneya and update the lender\n      @param _debtId debt number\n      @param _lender address of lender\n     */\n    function updateLender(uint256 _debtId, address _lender) external {\n        debtInfo[debtId].lender = _lender;\n        debtInfo[debtId].loanState = uint8(LoanState.ACTIVE);\n        lendHistory[_lender].push(_debtId);\n    }\n\n    function paidDebt(uint256 _debtId) external {\n        debtInfo[_debtId].loanState = uint8(LoanState.CLOSED);\n    }\n\n    function setHaveDebt(address _sender, bool _state) external {\n        haveDebt[_sender] = _state;\n    }\n\n    function checkHaveDebt(address _address) external view returns (bool) {\n        return haveDebt[_address];\n    }\n\n    function getLenderofDebt(uint256 _debtId) external view returns (address) {\n        return debtInfo[_debtId].lender;\n    }\n\n    function getBorrowerofDebt(uint256 _debtId)\n        external\n        view\n        returns (address)\n    {\n        return debtInfo[_debtId].borrower;\n    }\n\n    function getAmountofDebt(uint256 _debtId) external view returns (uint256) {\n        return debtInfo[_debtId].amount;\n    }\n\n    function getInterestofDebt(uint256 _debtId)\n        external\n        view\n        returns (uint256)\n    {\n        return debtInfo[_debtId].interest;\n    }\n\n    function getStateofDebt(uint256 _debtId) external view returns (uint8) {\n        return debtInfo[_debtId].loanState;\n    }\n\n    function getDebtHistory(address _address)\n        external\n        view\n        returns (uint256[] memory)\n    {\n        return debtHistory[_address];\n    }\n\n    function getLendHistory(address _address)\n        external\n        view\n        returns (uint256[] memory)\n    {\n        return lendHistory[_address];\n    }\n}\n",
  "sourcePath": "/Users/bhasineeraj/bhasineeraj/smartContracts/GBCDesignPatternMicroLoans/contracts/LoanDB.sol",
  "compiler": {
    "name": "solc",
    "version": "0.5.16+commit.9c3226ce.Emscripten.clang"
  },
  "schemaVersion": "3.2.0",
  "updatedAt": "2020-06-20T19:43:51.547Z",
  "networkType": "ethereum",
  "devdoc": {
    "author": "Bhasin Neeraj",
    "details": "stores all the information",
    "methods": {
      "addDebt(address,uint256,uint256)": {
        "details": "to add the debt info.",
        "params": {
          "_amount": "amount he want",
          "_borrower": "address of borrower",
          "_interest": "interest rate"
        }
      },
      "updateLender(uint256,address)": {
        "details": "called when someone lends the moneya and update the lender",
        "params": {
          "_debtId": "debt number",
          "_lender": "address of lender"
        }
      }
    },
    "title": "loanDB"
  },
  "userdoc": {
    "methods": {}
  }
}