{
  "contractName": "LoanManager",
  "abi": [
    {
      "inputs": [],
      "payable": false,
      "stateMutability": "nonpayable",
      "type": "constructor"
    },
    {
      "anonymous": false,
      "inputs": [
        {
          "indexed": true,
          "internalType": "address",
          "name": "",
          "type": "address"
        },
        {
          "indexed": true,
          "internalType": "uint256",
          "name": "",
          "type": "uint256"
        }
      ],
      "name": "Deposited",
      "type": "event"
    },
    {
      "anonymous": false,
      "inputs": [
        {
          "indexed": true,
          "internalType": "address",
          "name": "",
          "type": "address"
        },
        {
          "indexed": true,
          "internalType": "uint256",
          "name": "",
          "type": "uint256"
        }
      ],
      "name": "Withdrawal",
      "type": "event"
    },
    {
      "constant": false,
      "inputs": [
        {
          "internalType": "address",
          "name": "_borrower",
          "type": "address"
        },
        {
          "internalType": "uint256",
          "name": "_amount",
          "type": "uint256"
        },
        {
          "internalType": "uint256",
          "name": "_interest",
          "type": "uint256"
        }
      ],
      "name": "addDebt",
      "outputs": [],
      "payable": false,
      "stateMutability": "nonpayable",
      "type": "function"
    },
    {
      "constant": true,
      "inputs": [
        {
          "internalType": "address",
          "name": "_address",
          "type": "address"
        }
      ],
      "name": "checkHaveDebt",
      "outputs": [
        {
          "internalType": "bool",
          "name": "",
          "type": "bool"
        }
      ],
      "payable": false,
      "stateMutability": "view",
      "type": "function"
    },
    {
      "constant": false,
      "inputs": [
        {
          "internalType": "address",
          "name": "_to",
          "type": "address"
        }
      ],
      "name": "deposit",
      "outputs": [],
      "payable": true,
      "stateMutability": "payable",
      "type": "function"
    },
    {
      "constant": true,
      "inputs": [
        {
          "internalType": "uint256",
          "name": "_debtId",
          "type": "uint256"
        }
      ],
      "name": "getAmountofDebt",
      "outputs": [
        {
          "internalType": "uint256",
          "name": "",
          "type": "uint256"
        }
      ],
      "payable": false,
      "stateMutability": "view",
      "type": "function"
    },
    {
      "constant": true,
      "inputs": [
        {
          "internalType": "uint256",
          "name": "_debtId",
          "type": "uint256"
        }
      ],
      "name": "getBorrowerofDebt",
      "outputs": [
        {
          "internalType": "address",
          "name": "",
          "type": "address"
        }
      ],
      "payable": false,
      "stateMutability": "view",
      "type": "function"
    },
    {
      "constant": true,
      "inputs": [
        {
          "internalType": "address",
          "name": "_address",
          "type": "address"
        }
      ],
      "name": "getDebtHistory",
      "outputs": [
        {
          "internalType": "uint256[]",
          "name": "",
          "type": "uint256[]"
        }
      ],
      "payable": false,
      "stateMutability": "view",
      "type": "function"
    },
    {
      "constant": true,
      "inputs": [
        {
          "internalType": "uint256",
          "name": "_debtId",
          "type": "uint256"
        }
      ],
      "name": "getInterestofDebt",
      "outputs": [
        {
          "internalType": "uint256",
          "name": "",
          "type": "uint256"
        }
      ],
      "payable": false,
      "stateMutability": "view",
      "type": "function"
    },
    {
      "constant": true,
      "inputs": [
        {
          "internalType": "address",
          "name": "_address",
          "type": "address"
        }
      ],
      "name": "getLendHistory",
      "outputs": [
        {
          "internalType": "uint256[]",
          "name": "",
          "type": "uint256[]"
        }
      ],
      "payable": false,
      "stateMutability": "view",
      "type": "function"
    },
    {
      "constant": true,
      "inputs": [
        {
          "internalType": "uint256",
          "name": "_debtId",
          "type": "uint256"
        }
      ],
      "name": "getLenderofDebt",
      "outputs": [
        {
          "internalType": "address",
          "name": "",
          "type": "address"
        }
      ],
      "payable": false,
      "stateMutability": "view",
      "type": "function"
    },
    {
      "constant": true,
      "inputs": [
        {
          "internalType": "uint256",
          "name": "_debtId",
          "type": "uint256"
        }
      ],
      "name": "getStateofDebt",
      "outputs": [
        {
          "internalType": "uint8",
          "name": "",
          "type": "uint8"
        }
      ],
      "payable": false,
      "stateMutability": "view",
      "type": "function"
    },
    {
      "constant": false,
      "inputs": [
        {
          "internalType": "uint256",
          "name": "_debtId",
          "type": "uint256"
        }
      ],
      "name": "paidDebt",
      "outputs": [],
      "payable": false,
      "stateMutability": "nonpayable",
      "type": "function"
    },
    {
      "constant": false,
      "inputs": [
        {
          "internalType": "address",
          "name": "_sender",
          "type": "address"
        },
        {
          "internalType": "bool",
          "name": "_state",
          "type": "bool"
        }
      ],
      "name": "setHaveDebt",
      "outputs": [],
      "payable": false,
      "stateMutability": "nonpayable",
      "type": "function"
    },
    {
      "constant": true,
      "inputs": [],
      "name": "state",
      "outputs": [
        {
          "internalType": "enum LoanDB.LoanState",
          "name": "",
          "type": "uint8"
        }
      ],
      "payable": false,
      "stateMutability": "view",
      "type": "function"
    },
    {
      "constant": false,
      "inputs": [
        {
          "internalType": "uint256",
          "name": "_debtId",
          "type": "uint256"
        },
        {
          "internalType": "address",
          "name": "_lender",
          "type": "address"
        }
      ],
      "name": "updateLender",
      "outputs": [],
      "payable": false,
      "stateMutability": "nonpayable",
      "type": "function"
    },
    {
      "constant": false,
      "inputs": [
        {
          "internalType": "address payable",
          "name": "_to",
          "type": "address"
        },
        {
          "internalType": "uint256",
          "name": "_amount",
          "type": "uint256"
        }
      ],
      "name": "withdraw",
      "outputs": [],
      "payable": false,
      "stateMutability": "nonpayable",
      "type": "function"
    },
    {
      "constant": false,
      "inputs": [
        {
          "internalType": "address",
          "name": "_borrower",
          "type": "address"
        },
        {
          "internalType": "uint256",
          "name": "_amount",
          "type": "uint256"
        }
      ],
      "name": "requestForLoan",
      "outputs": [],
      "payable": false,
      "stateMutability": "nonpayable",
      "type": "function"
    },
    {
      "constant": false,
      "inputs": [
        {
          "internalType": "uint256",
          "name": "_debtNo",
          "type": "uint256"
        },
        {
          "internalType": "address",
          "name": "_sender",
          "type": "address"
        }
      ],
      "name": "lendLoan",
      "outputs": [],
      "payable": true,
      "stateMutability": "payable",
      "type": "function"
    },
    {
      "constant": false,
      "inputs": [
        {
          "internalType": "uint256",
          "name": "_debtNo",
          "type": "uint256"
        },
        {
          "internalType": "address",
          "name": "_sender",
          "type": "address"
        }
      ],
      "name": "payLoan",
      "outputs": [],
      "payable": true,
      "stateMutability": "payable",
      "type": "function"
    }
  ],
  "bytecode": "0x60806040526000600460006101000a81548160ff0219169083600281111561002357fe5b021790555034801561003457600080fd5b506121b6806100446000396000f3fe6080604052600436106101095760003560e01c8063aa40bd9911610095578063ce35b0e411610064578063ce35b0e414610623578063e2947b291461069e578063f340fa01146106d9578063f3fef3a31461071d578063f710e5b11461077857610109565b8063aa40bd99146104f9578063af03c79314610547578063bfc3f98014610595578063c19d93fb146105ea57610109565b8063694b9cf3116100dc578063694b9cf3146102f35780636c79fc801461034257806373400caf146103a7578063776052e01461044d5780638f21f51e146104aa57610109565b80631c5fc45b1461010e57806343505730146101695780634a453b8a1461020f5780634aa433931461028a575b600080fd5b34801561011a57600080fd5b506101676004803603604081101561013157600080fd5b81019080803573ffffffffffffffffffffffffffffffffffffffff169060200190929190803590602001909291905050506107d3565b005b34801561017557600080fd5b506101b86004803603602081101561018c57600080fd5b81019080803573ffffffffffffffffffffffffffffffffffffffff1690602001909291905050506109db565b6040518080602001828103825283818151815260200191508051906020019060200280838360005b838110156101fb5780820151818401526020810190506101e0565b505050509050019250505060405180910390f35b34801561021b57600080fd5b506102486004803603602081101561023257600080fd5b8101908080359060200190929190505050610a72565b604051808273ffffffffffffffffffffffffffffffffffffffff1673ffffffffffffffffffffffffffffffffffffffff16815260200191505060405180910390f35b34801561029657600080fd5b506102d9600480360360208110156102ad57600080fd5b81019080803573ffffffffffffffffffffffffffffffffffffffff169060200190929190505050610ab1565b604051808215151515815260200191505060405180910390f35b3480156102ff57600080fd5b5061032c6004803603602081101561031657600080fd5b8101908080359060200190929190505050610b07565b6040518082815260200191505060405180910390f35b34801561034e57600080fd5b506103a56004803603606081101561036557600080fd5b81019080803573ffffffffffffffffffffffffffffffffffffffff1690602001909291908035906020019092919080359060200190929190505050610b26565b005b3480156103b357600080fd5b506103f6600480360360208110156103ca57600080fd5b81019080803573ffffffffffffffffffffffffffffffffffffffff169060200190929190505050610d05565b6040518080602001828103825283818151815260200191508051906020019060200280838360005b8381101561043957808201518184015260208101905061041e565b505050509050019250505060405180910390f35b34801561045957600080fd5b506104a86004803603604081101561047057600080fd5b81019080803573ffffffffffffffffffffffffffffffffffffffff169060200190929190803515159060200190929190505050610d9c565b005b3480156104b657600080fd5b506104e3600480360360208110156104cd57600080fd5b8101908080359060200190929190505050610df7565b6040518082815260200191505060405180910390f35b6105456004803603604081101561050f57600080fd5b8101908080359060200190929190803573ffffffffffffffffffffffffffffffffffffffff169060200190929190505050610e16565b005b6105936004803603604081101561055d57600080fd5b8101908080359060200190929190803573ffffffffffffffffffffffffffffffffffffffff169060200190929190505050611470565b005b3480156105a157600080fd5b506105ce600480360360208110156105b857600080fd5b8101908080359060200190929190505050611a79565b604051808260ff1660ff16815260200191505060405180910390f35b3480156105f657600080fd5b506105ff611aa5565b6040518082600281111561060f57fe5b60ff16815260200191505060405180910390f35b34801561062f57600080fd5b5061065c6004803603602081101561064657600080fd5b8101908080359060200190929190505050611ab8565b604051808273ffffffffffffffffffffffffffffffffffffffff1673ffffffffffffffffffffffffffffffffffffffff16815260200191505060405180910390f35b3480156106aa57600080fd5b506106d7600480360360208110156106c157600080fd5b8101908080359060200190929190505050611af7565b005b61071b600480360360208110156106ef57600080fd5b81019080803573ffffffffffffffffffffffffffffffffffffffff169060200190929190505050611b33565b005b34801561072957600080fd5b506107766004803603604081101561074057600080fd5b81019080803573ffffffffffffffffffffffffffffffffffffffff16906020019092919080359060200190929190505050611c15565b005b34801561078457600080fd5b506107d16004803603604081101561079b57600080fd5b8101908080359060200190929190803573ffffffffffffffffffffffffffffffffffffffff169060200190929190505050611d39565b005b600015153073ffffffffffffffffffffffffffffffffffffffff16634aa43393846040518263ffffffff1660e01b8152600401808273ffffffffffffffffffffffffffffffffffffffff1673ffffffffffffffffffffffffffffffffffffffff16815260200191505060206040518083038186803b15801561085457600080fd5b505afa158015610868573d6000803e3d6000fd5b505050506040513d602081101561087e57600080fd5b8101908080519060200190929190505050151514610904576040517f08c379a00000000000000000000000000000000000000000000000000000000081526004018080602001828103825260118152602001807f616c72656164792068617665204465627400000000000000000000000000000081525060200191505060405180910390fd5b600061092d606461091f600585611e3890919063ffffffff16565b611ebe90919063ffffffff16565b90503073ffffffffffffffffffffffffffffffffffffffff16636c79fc808484846040518463ffffffff1660e01b8152600401808473ffffffffffffffffffffffffffffffffffffffff1673ffffffffffffffffffffffffffffffffffffffff1681526020018381526020018281526020019350505050600060405180830381600087803b1580156109be57600080fd5b505af11580156109d2573d6000803e3d6000fd5b50505050505050565b6060600160008373ffffffffffffffffffffffffffffffffffffffff1673ffffffffffffffffffffffffffffffffffffffff168152602001908152602001600020805480602002602001604051908101604052809291908181526020018280548015610a6657602002820191906000526020600020905b815481526020019060010190808311610a52575b50505050509050919050565b600080600083815260200190815260200160002060010160009054906101000a900473ffffffffffffffffffffffffffffffffffffffff169050919050565b6000600360008373ffffffffffffffffffffffffffffffffffffffff1673ffffffffffffffffffffffffffffffffffffffff16815260200190815260200160002060009054906101000a900460ff169050919050565b6000806000838152602001908152602001600020600401549050919050565b6040518060c0016040528060055481526020018473ffffffffffffffffffffffffffffffffffffffff168152602001600073ffffffffffffffffffffffffffffffffffffffff168152602001838152602001828152602001600460009054906101000a900460ff166002811115610b9957fe5b60ff1681525060008060055481526020019081526020016000206000820151816000015560208201518160010160006101000a81548173ffffffffffffffffffffffffffffffffffffffff021916908373ffffffffffffffffffffffffffffffffffffffff16021790555060408201518160020160006101000a81548173ffffffffffffffffffffffffffffffffffffffff021916908373ffffffffffffffffffffffffffffffffffffffff160217905550606082015181600301556080820151816004015560a08201518160050160006101000a81548160ff021916908360ff160217905550905050600160008473ffffffffffffffffffffffffffffffffffffffff1673ffffffffffffffffffffffffffffffffffffffff1681526020019081526020016000206005549080600181540180825580915050906001820390600052602060002001600090919290919091505550600560008154809291906001019190505550505050565b6060600260008373ffffffffffffffffffffffffffffffffffffffff1673ffffffffffffffffffffffffffffffffffffffff168152602001908152602001600020805480602002602001604051908101604052809291908181526020018280548015610d9057602002820191906000526020600020905b815481526020019060010190808311610d7c575b50505050509050919050565b80600360008473ffffffffffffffffffffffffffffffffffffffff1673ffffffffffffffffffffffffffffffffffffffff16815260200190815260200160002060006101000a81548160ff0219169083151502179055505050565b6000806000838152602001908152602001600020600301549050919050565b60003073ffffffffffffffffffffffffffffffffffffffff16638f21f51e846040518263ffffffff1660e01b81526004018082815260200191505060206040518083038186803b158015610e6957600080fd5b505afa158015610e7d573d6000803e3d6000fd5b505050506040513d6020811015610e9357600080fd5b8101908080519060200190929190505050905060003073ffffffffffffffffffffffffffffffffffffffff16634a453b8a856040518263ffffffff1660e01b81526004018082815260200191505060206040518083038186803b158015610ef957600080fd5b505afa158015610f0d573d6000803e3d6000fd5b505050506040513d6020811015610f2357600080fd5b8101908080519060200190929190505050905060006002811115610f4357fe5b3073ffffffffffffffffffffffffffffffffffffffff1663bfc3f980866040518263ffffffff1660e01b81526004018082815260200191505060206040518083038186803b158015610f9457600080fd5b505afa158015610fa8573d6000803e3d6000fd5b505050506040513d6020811015610fbe57600080fd5b810190808051906020019092919050505060ff1614611045576040517f08c379a00000000000000000000000000000000000000000000000000000000081526004018080602001828103825260168152602001807f4e6f7420696e207265717565737465642073746174650000000000000000000081525060200191505060405180910390fd5b813410156110bb576040517f08c379a00000000000000000000000000000000000000000000000000000000081526004018080602001828103825260118152602001807f4e6f7420656e6f75676820616d6f756e7400000000000000000000000000000081525060200191505060405180910390fd5b600073ffffffffffffffffffffffffffffffffffffffff168173ffffffffffffffffffffffffffffffffffffffff16141561115e576040517f08c379a00000000000000000000000000000000000000000000000000000000081526004018080602001828103825260148152602001807f44656274206973206e6f74206578697374696e6700000000000000000000000081525060200191505060405180910390fd5b600015153073ffffffffffffffffffffffffffffffffffffffff16634aa43393836040518263ffffffff1660e01b8152600401808273ffffffffffffffffffffffffffffffffffffffff1673ffffffffffffffffffffffffffffffffffffffff16815260200191505060206040518083038186803b1580156111df57600080fd5b505afa1580156111f3573d6000803e3d6000fd5b505050506040513d602081101561120957600080fd5b810190808051906020019092919050505015151461128f576040517f08c379a00000000000000000000000000000000000000000000000000000000081526004018080602001828103825260118152602001807f616c72656164792068617665204465627400000000000000000000000000000081525060200191505060405180910390fd5b3073ffffffffffffffffffffffffffffffffffffffff1663f340fa0134836040518363ffffffff1660e01b8152600401808273ffffffffffffffffffffffffffffffffffffffff1673ffffffffffffffffffffffffffffffffffffffff1681526020019150506000604051808303818588803b15801561130e57600080fd5b505af1158015611322573d6000803e3d6000fd5b50505050503073ffffffffffffffffffffffffffffffffffffffff1663f710e5b185856040518363ffffffff1660e01b8152600401808381526020018273ffffffffffffffffffffffffffffffffffffffff1673ffffffffffffffffffffffffffffffffffffffff16815260200192505050600060405180830381600087803b1580156113ae57600080fd5b505af11580156113c2573d6000803e3d6000fd5b505050503073ffffffffffffffffffffffffffffffffffffffff1663776052e08260016040518363ffffffff1660e01b8152600401808373ffffffffffffffffffffffffffffffffffffffff1673ffffffffffffffffffffffffffffffffffffffff1681526020018215151515815260200192505050600060405180830381600087803b15801561145257600080fd5b505af1158015611466573d6000803e3d6000fd5b5050505050505050565b600061159b3073ffffffffffffffffffffffffffffffffffffffff1663694b9cf3856040518263ffffffff1660e01b81526004018082815260200191505060206040518083038186803b1580156114c657600080fd5b505afa1580156114da573d6000803e3d6000fd5b505050506040513d60208110156114f057600080fd5b81019080805190602001909291905050503073ffffffffffffffffffffffffffffffffffffffff16638f21f51e866040518263ffffffff1660e01b81526004018082815260200191505060206040518083038186803b15801561155257600080fd5b505afa158015611566573d6000803e3d6000fd5b505050506040513d602081101561157c57600080fd5b8101908080519060200190929190505050611f0890919063ffffffff16565b905080341015611613576040517f08c379a00000000000000000000000000000000000000000000000000000000081526004018080602001828103825260118152602001807f4e6f7420656e6f75676820616d6f756e7400000000000000000000000000000081525060200191505060405180910390fd5b600081141561168a576040517f08c379a00000000000000000000000000000000000000000000000000000000081526004018080602001828103825260148152602001807f44656274206973206e6f74206578697374696e6700000000000000000000000081525060200191505060405180910390fd5b6001600281111561169757fe5b3073ffffffffffffffffffffffffffffffffffffffff1663bfc3f980856040518263ffffffff1660e01b81526004018082815260200191505060206040518083038186803b1580156116e857600080fd5b505afa1580156116fc573d6000803e3d6000fd5b505050506040513d602081101561171257600080fd5b810190808051906020019092919050505060ff1614611799576040517f08c379a00000000000000000000000000000000000000000000000000000000081526004018080602001828103825260138152602001807f4e6f7420696e2066756e6465642073746174650000000000000000000000000081525060200191505060405180910390fd5b60003073ffffffffffffffffffffffffffffffffffffffff1663ce35b0e4856040518263ffffffff1660e01b81526004018082815260200191505060206040518083038186803b1580156117ec57600080fd5b505afa158015611800573d6000803e3d6000fd5b505050506040513d602081101561181657600080fd5b81019080805190602001909291905050509050600073ffffffffffffffffffffffffffffffffffffffff168173ffffffffffffffffffffffffffffffffffffffff1614156118cc576040517f08c379a00000000000000000000000000000000000000000000000000000000081526004018080602001828103825260148152602001807f446f6573206e6f742068617665206c656e64657200000000000000000000000081525060200191505060405180910390fd5b3073ffffffffffffffffffffffffffffffffffffffff1663f340fa0134836040518363ffffffff1660e01b8152600401808273ffffffffffffffffffffffffffffffffffffffff1673ffffffffffffffffffffffffffffffffffffffff1681526020019150506000604051808303818588803b15801561194b57600080fd5b505af115801561195f573d6000803e3d6000fd5b50505050503073ffffffffffffffffffffffffffffffffffffffff1663e2947b29856040518263ffffffff1660e01b815260040180828152602001915050600060405180830381600087803b1580156119b757600080fd5b505af11580156119cb573d6000803e3d6000fd5b505050503073ffffffffffffffffffffffffffffffffffffffff1663776052e08460006040518363ffffffff1660e01b8152600401808373ffffffffffffffffffffffffffffffffffffffff1673ffffffffffffffffffffffffffffffffffffffff1681526020018215151515815260200192505050600060405180830381600087803b158015611a5b57600080fd5b505af1158015611a6f573d6000803e3d6000fd5b5050505050505050565b600080600083815260200190815260200160002060050160009054906101000a900460ff169050919050565b600460009054906101000a900460ff1681565b600080600083815260200190815260200160002060020160009054906101000a900473ffffffffffffffffffffffffffffffffffffffff169050919050565b600280811115611b0357fe5b60008083815260200190815260200160002060050160006101000a81548160ff021916908360ff16021790555050565b6000349050611b8a81600660008573ffffffffffffffffffffffffffffffffffffffff1673ffffffffffffffffffffffffffffffffffffffff16815260200190815260200160002054611f0890919063ffffffff16565b600660008473ffffffffffffffffffffffffffffffffffffffff1673ffffffffffffffffffffffffffffffffffffffff16815260200190815260200160002081905550808273ffffffffffffffffffffffffffffffffffffffff167f2da466a7b24304f47e87fa2e1e5a81b9831ce54fec19055ce277ca2f39ba42c460405160405180910390a35050565b611c6781600660008573ffffffffffffffffffffffffffffffffffffffff1673ffffffffffffffffffffffffffffffffffffffff16815260200190815260200160002054611f9090919063ffffffff16565b600660008473ffffffffffffffffffffffffffffffffffffffff1673ffffffffffffffffffffffffffffffffffffffff168152602001908152602001600020819055508173ffffffffffffffffffffffffffffffffffffffff166108fc829081150290604051600060405180830381858888f19350505050158015611cf0573d6000803e3d6000fd5b50808273ffffffffffffffffffffffffffffffffffffffff167f7fcf532c15f0a6db0bd6d0e038bea71d30d808c7d98cb3bf7268a95bf5081b6560405160405180910390a35050565b80600080600554815260200190815260200160002060020160006101000a81548173ffffffffffffffffffffffffffffffffffffffff021916908373ffffffffffffffffffffffffffffffffffffffff16021790555060016002811115611d9c57fe5b600080600554815260200190815260200160002060050160006101000a81548160ff021916908360ff160217905550600260008273ffffffffffffffffffffffffffffffffffffffff1673ffffffffffffffffffffffffffffffffffffffff1681526020019081526020016000208290806001815401808255809150509060018203906000526020600020016000909192909190915055505050565b600080831415611e4b5760009050611eb8565b6000828402905082848281611e5c57fe5b0414611eb3576040517f08c379a00000000000000000000000000000000000000000000000000000000081526004018080602001828103825260218152602001806121616021913960400191505060405180910390fd5b809150505b92915050565b6000611f0083836040518060400160405280601a81526020017f536166654d6174683a206469766973696f6e206279207a65726f000000000000815250611fda565b905092915050565b600080828401905083811015611f86576040517f08c379a000000000000000000000000000000000000000000000000000000000815260040180806020018281038252601b8152602001807f536166654d6174683a206164646974696f6e206f766572666c6f77000000000081525060200191505060405180910390fd5b8091505092915050565b6000611fd283836040518060400160405280601e81526020017f536166654d6174683a207375627472616374696f6e206f766572666c6f7700008152506120a0565b905092915050565b60008083118290612086576040517f08c379a00000000000000000000000000000000000000000000000000000000081526004018080602001828103825283818151815260200191508051906020019080838360005b8381101561204b578082015181840152602081019050612030565b50505050905090810190601f1680156120785780820380516001836020036101000a031916815260200191505b509250505060405180910390fd5b50600083858161209257fe5b049050809150509392505050565b600083831115829061214d576040517f08c379a00000000000000000000000000000000000000000000000000000000081526004018080602001828103825283818151815260200191508051906020019080838360005b838110156121125780820151818401526020810190506120f7565b50505050905090810190601f16801561213f5780820380516001836020036101000a031916815260200191505b509250505060405180910390fd5b506000838503905080915050939250505056fe536166654d6174683a206d756c7469706c69636174696f6e206f766572666c6f77a265627a7a7231582076d88191edd4311ebbc3df865e163ba307a276929986c75debb623948414b36664736f6c63430005100032",
  "source": "//SPDX-License-Identifier: MIT\npragma solidity >=0.5.0 <0.7.0;\n\n/**\n  @dev manage all the operations\n  @author Bhasin Neeraj\n */\nimport \"./LoanDB.sol\";\nimport \"./LoanWallet.sol\";\n\ncontract LoanManager is LoanDB, LoanWallet {\n    constructor() public {}\n\n    function requestForLoan(address _borrower, uint256 _amount) external {\n        // require(_amount >= 1e16 wei, \"The amount is too small to borrow\");\n        // require(\n        //     LoanDB(address(this)).getBorrowerofDebt(_debtNo) == address(0),\n        //     \"debt exists\"\n        // );\n        require(\n            LoanDB(address(this)).checkHaveDebt(_borrower) == false,\n            \"already have Debt\"\n        );\n        uint256 _interest = (_amount.mul(5)).div(100);\n        LoanDB(address(this)).addDebt(_borrower, _amount, _interest);\n    }\n\n    function lendLoan(uint256 _debtNo, address _sender) external payable {\n        uint256 _amount = LoanDB(address(this)).getAmountofDebt(_debtNo);\n        address _borrower = LoanDB(address(this)).getBorrowerofDebt(_debtNo);\n        require(\n            LoanDB(address(this)).getStateofDebt(_debtNo) ==\n                uint256(LoanState.PENDING),\n            \"Not in requested state\"\n        );\n        require(msg.value >= _amount, \"Not enough amount\");\n        require(_borrower != address(0), \"Debt is not existing\");\n        require(\n            LoanDB(address(this)).checkHaveDebt(_borrower) == false,\n            \"already have Debt\"\n        );\n        LoanWallet(address(this)).deposit.value(msg.value)(_borrower);\n        LoanDB(address(this)).updateLender(_debtNo, _sender);\n        LoanDB(address(this)).setHaveDebt(_borrower, true);\n    }\n\n    function payLoan(uint256 _debtNo, address _sender) external payable {\n        uint256 _amount = LoanDB(address(this)).getAmountofDebt(_debtNo).add(\n            LoanDB(address(this)).getInterestofDebt(_debtNo)\n        );\n        require(msg.value >= _amount, \"Not enough amount\");\n        require(_amount != 0, \"Debt is not existing\");\n        require(\n            LoanDB(address(this)).getStateofDebt(_debtNo) ==\n                uint256(LoanState.ACTIVE),\n            \"Not in funded state\"\n        );\n        address _lender = LoanDB(address(this)).getLenderofDebt(_debtNo);\n        require(_lender != address(0), \"Does not have lender\");\n        LoanWallet(address(this)).deposit.value(msg.value)(_lender);\n        LoanDB(address(this)).paidDebt(_debtNo);\n        LoanDB(address(this)).setHaveDebt(_sender, false);\n    }\n}\n",
  "sourcePath": "/Users/bhasineeraj/bhasineeraj/smartContracts/GBCDesignPatternMicroLoans/contracts/LoanManager.sol",
  "compiler": {
    "name": "solc",
    "version": "0.5.16+commit.9c3226ce.Emscripten.clang"
  },
  "schemaVersion": "3.2.0",
  "updatedAt": "2020-06-20T19:43:51.551Z",
  "networkType": "ethereum",
  "devdoc": {
    "methods": {
      "addDebt(address,uint256,uint256)": {
        "details": "to add the debt info.",
        "params": {
          "_amount": "amount he want",
          "_borrower": "address of borrower",
          "_interest": "interest rate"
        }
      },
      "updateLender(uint256,address)": {
        "details": "called when someone lends the moneya and update the lender",
        "params": {
          "_debtId": "debt number",
          "_lender": "address of lender"
        }
      }
    }
  },
  "userdoc": {
    "methods": {}
  }
}